{
  "_format": "hh-sol-artifact-1",
  "contractName": "TokenWithPartialRefund",
  "sourceName": "contracts/week1/TokenWithPartialRefund.sol",
  "abi": [
    {
      "inputs": [
        {
          "internalType": "uint56",
          "name": "_supply",
          "type": "uint56"
        }
      ],
      "stateMutability": "nonpayable",
      "type": "constructor"
    },
    {
      "anonymous": false,
      "inputs": [
        {
          "indexed": true,
          "internalType": "address",
          "name": "owner",
          "type": "address"
        },
        {
          "indexed": true,
          "internalType": "address",
          "name": "spender",
          "type": "address"
        },
        {
          "indexed": false,
          "internalType": "uint256",
          "name": "value",
          "type": "uint256"
        }
      ],
      "name": "Approval",
      "type": "event"
    },
    {
      "anonymous": false,
      "inputs": [
        {
          "indexed": true,
          "internalType": "address",
          "name": "from",
          "type": "address"
        },
        {
          "indexed": true,
          "internalType": "address",
          "name": "to",
          "type": "address"
        },
        {
          "indexed": false,
          "internalType": "uint256",
          "name": "value",
          "type": "uint256"
        }
      ],
      "name": "Transfer",
      "type": "event"
    },
    {
      "inputs": [],
      "name": "_owner",
      "outputs": [
        {
          "internalType": "address payable",
          "name": "",
          "type": "address"
        }
      ],
      "stateMutability": "view",
      "type": "function"
    },
    {
      "inputs": [
        {
          "internalType": "address",
          "name": "owner",
          "type": "address"
        },
        {
          "internalType": "address",
          "name": "spender",
          "type": "address"
        }
      ],
      "name": "allowance",
      "outputs": [
        {
          "internalType": "uint256",
          "name": "",
          "type": "uint256"
        }
      ],
      "stateMutability": "view",
      "type": "function"
    },
    {
      "inputs": [
        {
          "internalType": "address",
          "name": "spender",
          "type": "address"
        },
        {
          "internalType": "uint256",
          "name": "amount",
          "type": "uint256"
        }
      ],
      "name": "approve",
      "outputs": [
        {
          "internalType": "bool",
          "name": "",
          "type": "bool"
        }
      ],
      "stateMutability": "nonpayable",
      "type": "function"
    },
    {
      "inputs": [
        {
          "internalType": "address",
          "name": "account",
          "type": "address"
        }
      ],
      "name": "balanceOf",
      "outputs": [
        {
          "internalType": "uint256",
          "name": "",
          "type": "uint256"
        }
      ],
      "stateMutability": "view",
      "type": "function"
    },
    {
      "inputs": [],
      "name": "decimals",
      "outputs": [
        {
          "internalType": "uint8",
          "name": "",
          "type": "uint8"
        }
      ],
      "stateMutability": "view",
      "type": "function"
    },
    {
      "inputs": [
        {
          "internalType": "address",
          "name": "spender",
          "type": "address"
        },
        {
          "internalType": "uint256",
          "name": "subtractedValue",
          "type": "uint256"
        }
      ],
      "name": "decreaseAllowance",
      "outputs": [
        {
          "internalType": "bool",
          "name": "",
          "type": "bool"
        }
      ],
      "stateMutability": "nonpayable",
      "type": "function"
    },
    {
      "inputs": [
        {
          "internalType": "address",
          "name": "spender",
          "type": "address"
        },
        {
          "internalType": "uint256",
          "name": "addedValue",
          "type": "uint256"
        }
      ],
      "name": "increaseAllowance",
      "outputs": [
        {
          "internalType": "bool",
          "name": "",
          "type": "bool"
        }
      ],
      "stateMutability": "nonpayable",
      "type": "function"
    },
    {
      "inputs": [],
      "name": "isOwner",
      "outputs": [
        {
          "internalType": "bool",
          "name": "",
          "type": "bool"
        }
      ],
      "stateMutability": "view",
      "type": "function"
    },
    {
      "inputs": [],
      "name": "mintTokens",
      "outputs": [],
      "stateMutability": "payable",
      "type": "function"
    },
    {
      "inputs": [],
      "name": "name",
      "outputs": [
        {
          "internalType": "string",
          "name": "",
          "type": "string"
        }
      ],
      "stateMutability": "view",
      "type": "function"
    },
    {
      "inputs": [
        {
          "internalType": "uint256",
          "name": "tokens",
          "type": "uint256"
        }
      ],
      "name": "sellBack",
      "outputs": [],
      "stateMutability": "payable",
      "type": "function"
    },
    {
      "inputs": [],
      "name": "symbol",
      "outputs": [
        {
          "internalType": "string",
          "name": "",
          "type": "string"
        }
      ],
      "stateMutability": "view",
      "type": "function"
    },
    {
      "inputs": [],
      "name": "totalSupply",
      "outputs": [
        {
          "internalType": "uint256",
          "name": "",
          "type": "uint256"
        }
      ],
      "stateMutability": "view",
      "type": "function"
    },
    {
      "inputs": [
        {
          "internalType": "address",
          "name": "to",
          "type": "address"
        },
        {
          "internalType": "uint256",
          "name": "amount",
          "type": "uint256"
        }
      ],
      "name": "transfer",
      "outputs": [
        {
          "internalType": "bool",
          "name": "",
          "type": "bool"
        }
      ],
      "stateMutability": "nonpayable",
      "type": "function"
    },
    {
      "inputs": [],
      "name": "transferEthers",
      "outputs": [],
      "stateMutability": "payable",
      "type": "function"
    },
    {
      "inputs": [
        {
          "internalType": "address",
          "name": "from",
          "type": "address"
        },
        {
          "internalType": "address",
          "name": "to",
          "type": "address"
        },
        {
          "internalType": "uint256",
          "name": "amount",
          "type": "uint256"
        }
      ],
      "name": "transferFrom",
      "outputs": [
        {
          "internalType": "bool",
          "name": "",
          "type": "bool"
        }
      ],
      "stateMutability": "nonpayable",
      "type": "function"
    }
  ],
  "bytecode": "0x6080604052620186a06005553480156200001857600080fd5b50604051620026bb380380620026bb83398181016040528101906200003e919062000364565b6040518060400160405280601681526020017f546f6b656e576974685061727469616c526566756e64000000000000000000008152506040518060400160405280600481526020017f54575052000000000000000000000000000000000000000000000000000000008152508160039081620000bb919062000610565b508060049081620000cd919062000610565b505050620000eb338266ffffffffffffff166200018c60201b60201c565b33600660006101000a81548173ffffffffffffffffffffffffffffffffffffffff021916908373ffffffffffffffffffffffffffffffffffffffff1602179055506000670de0b6b3a7640000905060006103e890506200015a8183620002f960201b620009bc1790919060201c565b6007819055506200017d6002600754620002f960201b620009bc1790919060201c565b60088190555050505062000879565b600073ffffffffffffffffffffffffffffffffffffffff168273ffffffffffffffffffffffffffffffffffffffff1603620001fe576040517f08c379a0000000000000000000000000000000000000000000000000000000008152600401620001f59062000758565b60405180910390fd5b62000212600083836200031160201b60201c565b8060026000828254620002269190620007a9565b92505081905550806000808473ffffffffffffffffffffffffffffffffffffffff1673ffffffffffffffffffffffffffffffffffffffff168152602001908152602001600020600082825401925050819055508173ffffffffffffffffffffffffffffffffffffffff16600073ffffffffffffffffffffffffffffffffffffffff167fddf252ad1be2c89b69c2b068fc378daa952ba7f163c4a11628f55a4df523b3ef83604051620002d99190620007f5565b60405180910390a3620002f5600083836200031660201b60201c565b5050565b6000818362000309919062000841565b905092915050565b505050565b505050565b600080fd5b600066ffffffffffffff82169050919050565b6200033e8162000320565b81146200034a57600080fd5b50565b6000815190506200035e8162000333565b92915050565b6000602082840312156200037d576200037c6200031b565b5b60006200038d848285016200034d565b91505092915050565b600081519050919050565b7f4e487b7100000000000000000000000000000000000000000000000000000000600052604160045260246000fd5b7f4e487b7100000000000000000000000000000000000000000000000000000000600052602260045260246000fd5b600060028204905060018216806200041857607f821691505b6020821081036200042e576200042d620003d0565b5b50919050565b60008190508160005260206000209050919050565b60006020601f8301049050919050565b600082821b905092915050565b600060088302620004987fffffffffffffffffffffffffffffffffffffffffffffffffffffffffffffffff8262000459565b620004a4868362000459565b95508019841693508086168417925050509392505050565b6000819050919050565b6000819050919050565b6000620004f1620004eb620004e584620004bc565b620004c6565b620004bc565b9050919050565b6000819050919050565b6200050d83620004d0565b620005256200051c82620004f8565b84845462000466565b825550505050565b600090565b6200053c6200052d565b6200054981848462000502565b505050565b5b8181101562000571576200056560008262000532565b6001810190506200054f565b5050565b601f821115620005c0576200058a8162000434565b620005958462000449565b81016020851015620005a5578190505b620005bd620005b48562000449565b8301826200054e565b50505b505050565b600082821c905092915050565b6000620005e560001984600802620005c5565b1980831691505092915050565b6000620006008383620005d2565b9150826002028217905092915050565b6200061b8262000396565b67ffffffffffffffff811115620006375762000636620003a1565b5b620006438254620003ff565b6200065082828562000575565b600060209050601f83116001811462000688576000841562000673578287015190505b6200067f8582620005f2565b865550620006ef565b601f198416620006988662000434565b60005b82811015620006c2578489015182556001820191506020850194506020810190506200069b565b86831015620006e25784890151620006de601f891682620005d2565b8355505b6001600288020188555050505b505050505050565b600082825260208201905092915050565b7f45524332303a206d696e7420746f20746865207a65726f206164647265737300600082015250565b600062000740601f83620006f7565b91506200074d8262000708565b602082019050919050565b60006020820190508181036000830152620007738162000731565b9050919050565b7f4e487b7100000000000000000000000000000000000000000000000000000000600052601160045260246000fd5b6000620007b682620004bc565b9150620007c383620004bc565b9250828201905080821115620007de57620007dd6200077a565b5b92915050565b620007ef81620004bc565b82525050565b60006020820190506200080c6000830184620007e4565b92915050565b7f4e487b7100000000000000000000000000000000000000000000000000000000600052601260045260246000fd5b60006200084e82620004bc565b91506200085b83620004bc565b9250826200086e576200086d62000812565b5b828204905092915050565b611e3280620008896000396000f3fe6080604052600436106100f35760003560e01c806395d89b411161008a578063b2bdfa7b11610059578063b2bdfa7b14610359578063d271011d14610384578063dd62ed3e1461038e578063eeb9635c146103cb576100f3565b806395d89b4114610298578063a457c2d7146102c3578063a9059cbb14610300578063ad5d4bc51461033d576100f3565b8063313ce567116100c6578063313ce567146101c857806339509351146101f357806370a08231146102305780638f32d59b1461026d576100f3565b806306fdde03146100f8578063095ea7b31461012357806318160ddd1461016057806323b872dd1461018b575b600080fd5b34801561010457600080fd5b5061010d6103d5565b60405161011a9190611278565b60405180910390f35b34801561012f57600080fd5b5061014a60048036038101906101459190611333565b610467565b604051610157919061138e565b60405180910390f35b34801561016c57600080fd5b5061017561048a565b60405161018291906113b8565b60405180910390f35b34801561019757600080fd5b506101b260048036038101906101ad91906113d3565b610494565b6040516101bf919061138e565b60405180910390f35b3480156101d457600080fd5b506101dd6104c3565b6040516101ea9190611442565b60405180910390f35b3480156101ff57600080fd5b5061021a60048036038101906102159190611333565b6104cc565b604051610227919061138e565b60405180910390f35b34801561023c57600080fd5b506102576004803603810190610252919061145d565b610503565b60405161026491906113b8565b60405180910390f35b34801561027957600080fd5b5061028261054b565b60405161028f919061138e565b60405180910390f35b3480156102a457600080fd5b506102ad6105a3565b6040516102ba9190611278565b60405180910390f35b3480156102cf57600080fd5b506102ea60048036038101906102e59190611333565b610635565b6040516102f7919061138e565b60405180910390f35b34801561030c57600080fd5b5061032760048036038101906103229190611333565b6106ac565b604051610334919061138e565b60405180910390f35b6103576004803603810190610352919061148a565b6106cf565b005b34801561036557600080fd5b5061036e6107d1565b60405161037b91906114d8565b60405180910390f35b61038c6107f7565b005b34801561039a57600080fd5b506103b560048036038101906103b091906114f3565b610873565b6040516103c291906113b8565b60405180910390f35b6103d36108fa565b005b6060600380546103e490611562565b80601f016020809104026020016040519081016040528092919081815260200182805461041090611562565b801561045d5780601f106104325761010080835404028352916020019161045d565b820191906000526020600020905b81548152906001019060200180831161044057829003601f168201915b5050505050905090565b6000806104726109d2565b905061047f8185856109da565b600191505092915050565b6000600254905090565b60008061049f6109d2565b90506104ac858285610ba3565b6104b7858585610c2f565b60019150509392505050565b60006012905090565b6000806104d76109d2565b90506104f88185856104e98589610873565b6104f391906115c2565b6109da565b600191505092915050565b60008060008373ffffffffffffffffffffffffffffffffffffffff1673ffffffffffffffffffffffffffffffffffffffff168152602001908152602001600020549050919050565b6000600660009054906101000a900473ffffffffffffffffffffffffffffffffffffffff1673ffffffffffffffffffffffffffffffffffffffff163373ffffffffffffffffffffffffffffffffffffffff1614905090565b6060600480546105b290611562565b80601f01602080910402602001604051908101604052809291908181526020018280546105de90611562565b801561062b5780601f106106005761010080835404028352916020019161062b565b820191906000526020600020905b81548152906001019060200180831161060e57829003601f168201915b5050505050905090565b6000806106406109d2565b9050600061064e8286610873565b905083811015610693576040517f08c379a000000000000000000000000000000000000000000000000000000000815260040161068a90611668565b60405180910390fd5b6106a082868684036109da565b60019250505092915050565b6000806106b76109d2565b90506106c4818585610c2f565b600191505092915050565b806106d933610503565b101561071a576040517f08c379a0000000000000000000000000000000000000000000000000000000008152600401610711906116fa565b60405180910390fd5b600061073160085483610ea590919063ffffffff16565b905060004790508181101561077b576040517f08c379a000000000000000000000000000000000000000000000000000000000815260040161077290611766565b60405180910390fd5b6107853384610ebb565b3373ffffffffffffffffffffffffffffffffffffffff166108fc839081150290604051600060405180830381858888f193505050501580156107cb573d6000803e3d6000fd5b50505050565b600660009054906101000a900473ffffffffffffffffffffffffffffffffffffffff1681565b6107ff61054b565b61080857600080fd5b600660009054906101000a900473ffffffffffffffffffffffffffffffffffffffff1673ffffffffffffffffffffffffffffffffffffffff166108fc479081150290604051600060405180830381858888f19350505050158015610870573d6000803e3d6000fd5b50565b6000600160008473ffffffffffffffffffffffffffffffffffffffff1673ffffffffffffffffffffffffffffffffffffffff16815260200190815260200160002060008373ffffffffffffffffffffffffffffffffffffffff1673ffffffffffffffffffffffffffffffffffffffff16815260200190815260200160002054905092915050565b60075434101561093f576040517f08c379a0000000000000000000000000000000000000000000000000000000008152600401610936906117f8565b60405180910390fd5b6000610956600754346109bc90919063ffffffff16565b90506005548161096461048a565b61096e91906115c2565b11156109af576040517f08c379a00000000000000000000000000000000000000000000000000000000081526004016109a690611864565b60405180910390fd5b6109b93382611088565b50565b600081836109ca91906118b3565b905092915050565b600033905090565b600073ffffffffffffffffffffffffffffffffffffffff168373ffffffffffffffffffffffffffffffffffffffff1603610a49576040517f08c379a0000000000000000000000000000000000000000000000000000000008152600401610a4090611956565b60405180910390fd5b600073ffffffffffffffffffffffffffffffffffffffff168273ffffffffffffffffffffffffffffffffffffffff1603610ab8576040517f08c379a0000000000000000000000000000000000000000000000000000000008152600401610aaf906119e8565b60405180910390fd5b80600160008573ffffffffffffffffffffffffffffffffffffffff1673ffffffffffffffffffffffffffffffffffffffff16815260200190815260200160002060008473ffffffffffffffffffffffffffffffffffffffff1673ffffffffffffffffffffffffffffffffffffffff168152602001908152602001600020819055508173ffffffffffffffffffffffffffffffffffffffff168373ffffffffffffffffffffffffffffffffffffffff167f8c5be1e5ebec7d5bd14f71427d1e84f3dd0314c0f7b2291e5b200ac8c7c3b92583604051610b9691906113b8565b60405180910390a3505050565b6000610baf8484610873565b90507fffffffffffffffffffffffffffffffffffffffffffffffffffffffffffffffff8114610c295781811015610c1b576040517f08c379a0000000000000000000000000000000000000000000000000000000008152600401610c1290611a54565b60405180910390fd5b610c2884848484036109da565b5b50505050565b600073ffffffffffffffffffffffffffffffffffffffff168373ffffffffffffffffffffffffffffffffffffffff1603610c9e576040517f08c379a0000000000000000000000000000000000000000000000000000000008152600401610c9590611ae6565b60405180910390fd5b600073ffffffffffffffffffffffffffffffffffffffff168273ffffffffffffffffffffffffffffffffffffffff1603610d0d576040517f08c379a0000000000000000000000000000000000000000000000000000000008152600401610d0490611b78565b60405180910390fd5b610d188383836111de565b60008060008573ffffffffffffffffffffffffffffffffffffffff1673ffffffffffffffffffffffffffffffffffffffff16815260200190815260200160002054905081811015610d9e576040517f08c379a0000000000000000000000000000000000000000000000000000000008152600401610d9590611c0a565b60405180910390fd5b8181036000808673ffffffffffffffffffffffffffffffffffffffff1673ffffffffffffffffffffffffffffffffffffffff16815260200190815260200160002081905550816000808573ffffffffffffffffffffffffffffffffffffffff1673ffffffffffffffffffffffffffffffffffffffff168152602001908152602001600020600082825401925050819055508273ffffffffffffffffffffffffffffffffffffffff168473ffffffffffffffffffffffffffffffffffffffff167fddf252ad1be2c89b69c2b068fc378daa952ba7f163c4a11628f55a4df523b3ef84604051610e8c91906113b8565b60405180910390a3610e9f8484846111e3565b50505050565b60008183610eb39190611c2a565b905092915050565b600073ffffffffffffffffffffffffffffffffffffffff168273ffffffffffffffffffffffffffffffffffffffff1603610f2a576040517f08c379a0000000000000000000000000000000000000000000000000000000008152600401610f2190611cde565b60405180910390fd5b610f36826000836111de565b60008060008473ffffffffffffffffffffffffffffffffffffffff1673ffffffffffffffffffffffffffffffffffffffff16815260200190815260200160002054905081811015610fbc576040517f08c379a0000000000000000000000000000000000000000000000000000000008152600401610fb390611d70565b60405180910390fd5b8181036000808573ffffffffffffffffffffffffffffffffffffffff1673ffffffffffffffffffffffffffffffffffffffff1681526020019081526020016000208190555081600260008282540392505081905550600073ffffffffffffffffffffffffffffffffffffffff168373ffffffffffffffffffffffffffffffffffffffff167fddf252ad1be2c89b69c2b068fc378daa952ba7f163c4a11628f55a4df523b3ef8460405161106f91906113b8565b60405180910390a3611083836000846111e3565b505050565b600073ffffffffffffffffffffffffffffffffffffffff168273ffffffffffffffffffffffffffffffffffffffff16036110f7576040517f08c379a00000000000000000000000000000000000000000000000000000000081526004016110ee90611ddc565b60405180910390fd5b611103600083836111de565b806002600082825461111591906115c2565b92505081905550806000808473ffffffffffffffffffffffffffffffffffffffff1673ffffffffffffffffffffffffffffffffffffffff168152602001908152602001600020600082825401925050819055508173ffffffffffffffffffffffffffffffffffffffff16600073ffffffffffffffffffffffffffffffffffffffff167fddf252ad1be2c89b69c2b068fc378daa952ba7f163c4a11628f55a4df523b3ef836040516111c691906113b8565b60405180910390a36111da600083836111e3565b5050565b505050565b505050565b600081519050919050565b600082825260208201905092915050565b60005b83811015611222578082015181840152602081019050611207565b60008484015250505050565b6000601f19601f8301169050919050565b600061124a826111e8565b61125481856111f3565b9350611264818560208601611204565b61126d8161122e565b840191505092915050565b60006020820190508181036000830152611292818461123f565b905092915050565b600080fd5b600073ffffffffffffffffffffffffffffffffffffffff82169050919050565b60006112ca8261129f565b9050919050565b6112da816112bf565b81146112e557600080fd5b50565b6000813590506112f7816112d1565b92915050565b6000819050919050565b611310816112fd565b811461131b57600080fd5b50565b60008135905061132d81611307565b92915050565b6000806040838503121561134a5761134961129a565b5b6000611358858286016112e8565b92505060206113698582860161131e565b9150509250929050565b60008115159050919050565b61138881611373565b82525050565b60006020820190506113a3600083018461137f565b92915050565b6113b2816112fd565b82525050565b60006020820190506113cd60008301846113a9565b92915050565b6000806000606084860312156113ec576113eb61129a565b5b60006113fa868287016112e8565b935050602061140b868287016112e8565b925050604061141c8682870161131e565b9150509250925092565b600060ff82169050919050565b61143c81611426565b82525050565b60006020820190506114576000830184611433565b92915050565b6000602082840312156114735761147261129a565b5b6000611481848285016112e8565b91505092915050565b6000602082840312156114a05761149f61129a565b5b60006114ae8482850161131e565b91505092915050565b60006114c28261129f565b9050919050565b6114d2816114b7565b82525050565b60006020820190506114ed60008301846114c9565b92915050565b6000806040838503121561150a5761150961129a565b5b6000611518858286016112e8565b9250506020611529858286016112e8565b9150509250929050565b7f4e487b7100000000000000000000000000000000000000000000000000000000600052602260045260246000fd5b6000600282049050600182168061157a57607f821691505b60208210810361158d5761158c611533565b5b50919050565b7f4e487b7100000000000000000000000000000000000000000000000000000000600052601160045260246000fd5b60006115cd826112fd565b91506115d8836112fd565b92508282019050808211156115f0576115ef611593565b5b92915050565b7f45524332303a2064656372656173656420616c6c6f77616e63652062656c6f7760008201527f207a65726f000000000000000000000000000000000000000000000000000000602082015250565b60006116526025836111f3565b915061165d826115f6565b604082019050919050565b6000602082019050818103600083015261168181611645565b9050919050565b7f796f7520646f6e74206861766520656e6f75676820746f6b656e7320746f207360008201527f656c6c0000000000000000000000000000000000000000000000000000000000602082015250565b60006116e46023836111f3565b91506116ef82611688565b604082019050919050565b60006020820190508181036000830152611713816116d7565b9050919050565b7f6e6f7420656e6f7567682065746865727320746f207061790000000000000000600082015250565b60006117506018836111f3565b915061175b8261171a565b602082019050919050565b6000602082019050818103600083015261177f81611743565b9050919050565b7f52657175697265642061746c6561737420302e30303120657468657220746f2060008201527f6d696e7400000000000000000000000000000000000000000000000000000000602082015250565b60006117e26024836111f3565b91506117ed82611786565b604082019050919050565b60006020820190508181036000830152611811816117d5565b9050919050565b7f53616c6520636c6f736564000000000000000000000000000000000000000000600082015250565b600061184e600b836111f3565b915061185982611818565b602082019050919050565b6000602082019050818103600083015261187d81611841565b9050919050565b7f4e487b7100000000000000000000000000000000000000000000000000000000600052601260045260246000fd5b60006118be826112fd565b91506118c9836112fd565b9250826118d9576118d8611884565b5b828204905092915050565b7f45524332303a20617070726f76652066726f6d20746865207a65726f2061646460008201527f7265737300000000000000000000000000000000000000000000000000000000602082015250565b60006119406024836111f3565b915061194b826118e4565b604082019050919050565b6000602082019050818103600083015261196f81611933565b9050919050565b7f45524332303a20617070726f766520746f20746865207a65726f20616464726560008201527f7373000000000000000000000000000000000000000000000000000000000000602082015250565b60006119d26022836111f3565b91506119dd82611976565b604082019050919050565b60006020820190508181036000830152611a01816119c5565b9050919050565b7f45524332303a20696e73756666696369656e7420616c6c6f77616e6365000000600082015250565b6000611a3e601d836111f3565b9150611a4982611a08565b602082019050919050565b60006020820190508181036000830152611a6d81611a31565b9050919050565b7f45524332303a207472616e736665722066726f6d20746865207a65726f20616460008201527f6472657373000000000000000000000000000000000000000000000000000000602082015250565b6000611ad06025836111f3565b9150611adb82611a74565b604082019050919050565b60006020820190508181036000830152611aff81611ac3565b9050919050565b7f45524332303a207472616e7366657220746f20746865207a65726f206164647260008201527f6573730000000000000000000000000000000000000000000000000000000000602082015250565b6000611b626023836111f3565b9150611b6d82611b06565b604082019050919050565b60006020820190508181036000830152611b9181611b55565b9050919050565b7f45524332303a207472616e7366657220616d6f756e742065786365656473206260008201527f616c616e63650000000000000000000000000000000000000000000000000000602082015250565b6000611bf46026836111f3565b9150611bff82611b98565b604082019050919050565b60006020820190508181036000830152611c2381611be7565b9050919050565b6000611c35826112fd565b9150611c40836112fd565b9250828202611c4e816112fd565b91508282048414831517611c6557611c64611593565b5b5092915050565b7f45524332303a206275726e2066726f6d20746865207a65726f2061646472657360008201527f7300000000000000000000000000000000000000000000000000000000000000602082015250565b6000611cc86021836111f3565b9150611cd382611c6c565b604082019050919050565b60006020820190508181036000830152611cf781611cbb565b9050919050565b7f45524332303a206275726e20616d6f756e7420657863656564732062616c616e60008201527f6365000000000000000000000000000000000000000000000000000000000000602082015250565b6000611d5a6022836111f3565b9150611d6582611cfe565b604082019050919050565b60006020820190508181036000830152611d8981611d4d565b9050919050565b7f45524332303a206d696e7420746f20746865207a65726f206164647265737300600082015250565b6000611dc6601f836111f3565b9150611dd182611d90565b602082019050919050565b60006020820190508181036000830152611df581611db9565b905091905056fea2646970667358221220b83515dbf871ed75d474b5d00d44ad0ca6f2bdaca6ecb125870748165e4d7d3264736f6c63430008110033",
  "linkReferences": {},
  "deployedLinkReferences": {}
}