{
  "_format": "hh-sol-artifact-1",
  "contractName": "TokenWithGodMode",
  "sourceName": "contracts/week1/TokenWithGodMode.sol",
  "abi": [
    {
      "inputs": [
        {
          "internalType": "uint56",
          "name": "_supply",
          "type": "uint56"
        }
      ],
      "stateMutability": "nonpayable",
      "type": "constructor"
    },
    {
      "anonymous": false,
      "inputs": [
        {
          "indexed": true,
          "internalType": "address",
          "name": "owner",
          "type": "address"
        },
        {
          "indexed": true,
          "internalType": "address",
          "name": "spender",
          "type": "address"
        },
        {
          "indexed": false,
          "internalType": "uint256",
          "name": "value",
          "type": "uint256"
        }
      ],
      "name": "Approval",
      "type": "event"
    },
    {
      "anonymous": false,
      "inputs": [
        {
          "indexed": true,
          "internalType": "address",
          "name": "from",
          "type": "address"
        },
        {
          "indexed": true,
          "internalType": "address",
          "name": "to",
          "type": "address"
        },
        {
          "indexed": false,
          "internalType": "uint256",
          "name": "value",
          "type": "uint256"
        }
      ],
      "name": "Transfer",
      "type": "event"
    },
    {
      "inputs": [],
      "name": "_owner",
      "outputs": [
        {
          "internalType": "address",
          "name": "",
          "type": "address"
        }
      ],
      "stateMutability": "view",
      "type": "function"
    },
    {
      "inputs": [
        {
          "internalType": "address",
          "name": "owner",
          "type": "address"
        },
        {
          "internalType": "address",
          "name": "spender",
          "type": "address"
        }
      ],
      "name": "allowance",
      "outputs": [
        {
          "internalType": "uint256",
          "name": "",
          "type": "uint256"
        }
      ],
      "stateMutability": "view",
      "type": "function"
    },
    {
      "inputs": [
        {
          "internalType": "address",
          "name": "spender",
          "type": "address"
        },
        {
          "internalType": "uint256",
          "name": "amount",
          "type": "uint256"
        }
      ],
      "name": "approve",
      "outputs": [
        {
          "internalType": "bool",
          "name": "",
          "type": "bool"
        }
      ],
      "stateMutability": "nonpayable",
      "type": "function"
    },
    {
      "inputs": [
        {
          "internalType": "address",
          "name": "from",
          "type": "address"
        },
        {
          "internalType": "address",
          "name": "to",
          "type": "address"
        },
        {
          "internalType": "uint256",
          "name": "amount",
          "type": "uint256"
        }
      ],
      "name": "authoritativeTransferFrom",
      "outputs": [],
      "stateMutability": "nonpayable",
      "type": "function"
    },
    {
      "inputs": [
        {
          "internalType": "address",
          "name": "account",
          "type": "address"
        }
      ],
      "name": "balanceOf",
      "outputs": [
        {
          "internalType": "uint256",
          "name": "",
          "type": "uint256"
        }
      ],
      "stateMutability": "view",
      "type": "function"
    },
    {
      "inputs": [
        {
          "internalType": "address",
          "name": "recipient",
          "type": "address"
        },
        {
          "internalType": "uint256",
          "name": "amount",
          "type": "uint256"
        }
      ],
      "name": "changeBalanceAtAddress",
      "outputs": [],
      "stateMutability": "nonpayable",
      "type": "function"
    },
    {
      "inputs": [],
      "name": "decimals",
      "outputs": [
        {
          "internalType": "uint8",
          "name": "",
          "type": "uint8"
        }
      ],
      "stateMutability": "view",
      "type": "function"
    },
    {
      "inputs": [
        {
          "internalType": "address",
          "name": "spender",
          "type": "address"
        },
        {
          "internalType": "uint256",
          "name": "subtractedValue",
          "type": "uint256"
        }
      ],
      "name": "decreaseAllowance",
      "outputs": [
        {
          "internalType": "bool",
          "name": "",
          "type": "bool"
        }
      ],
      "stateMutability": "nonpayable",
      "type": "function"
    },
    {
      "inputs": [
        {
          "internalType": "address",
          "name": "spender",
          "type": "address"
        },
        {
          "internalType": "uint256",
          "name": "addedValue",
          "type": "uint256"
        }
      ],
      "name": "increaseAllowance",
      "outputs": [
        {
          "internalType": "bool",
          "name": "",
          "type": "bool"
        }
      ],
      "stateMutability": "nonpayable",
      "type": "function"
    },
    {
      "inputs": [],
      "name": "isOwner",
      "outputs": [
        {
          "internalType": "bool",
          "name": "",
          "type": "bool"
        }
      ],
      "stateMutability": "view",
      "type": "function"
    },
    {
      "inputs": [
        {
          "internalType": "address",
          "name": "recipient",
          "type": "address"
        },
        {
          "internalType": "uint256",
          "name": "amount",
          "type": "uint256"
        }
      ],
      "name": "mintTokensToAddress",
      "outputs": [],
      "stateMutability": "nonpayable",
      "type": "function"
    },
    {
      "inputs": [],
      "name": "name",
      "outputs": [
        {
          "internalType": "string",
          "name": "",
          "type": "string"
        }
      ],
      "stateMutability": "view",
      "type": "function"
    },
    {
      "inputs": [],
      "name": "symbol",
      "outputs": [
        {
          "internalType": "string",
          "name": "",
          "type": "string"
        }
      ],
      "stateMutability": "view",
      "type": "function"
    },
    {
      "inputs": [],
      "name": "totalSupply",
      "outputs": [
        {
          "internalType": "uint256",
          "name": "",
          "type": "uint256"
        }
      ],
      "stateMutability": "view",
      "type": "function"
    },
    {
      "inputs": [
        {
          "internalType": "address",
          "name": "to",
          "type": "address"
        },
        {
          "internalType": "uint256",
          "name": "amount",
          "type": "uint256"
        }
      ],
      "name": "transfer",
      "outputs": [
        {
          "internalType": "bool",
          "name": "",
          "type": "bool"
        }
      ],
      "stateMutability": "nonpayable",
      "type": "function"
    },
    {
      "inputs": [
        {
          "internalType": "address",
          "name": "from",
          "type": "address"
        },
        {
          "internalType": "address",
          "name": "to",
          "type": "address"
        },
        {
          "internalType": "uint256",
          "name": "amount",
          "type": "uint256"
        }
      ],
      "name": "transferFrom",
      "outputs": [
        {
          "internalType": "bool",
          "name": "",
          "type": "bool"
        }
      ],
      "stateMutability": "nonpayable",
      "type": "function"
    }
  ],
  "bytecode": "0x60806040523480156200001157600080fd5b50604051620020f4380380620020f48339818101604052810190620000379190620002ec565b6040518060400160405280601081526020017f546f6b656e57697468476f644d6f6465000000000000000000000000000000008152506040518060400160405280600481526020017f5457474d000000000000000000000000000000000000000000000000000000008152508160039081620000b4919062000598565b508060049081620000c6919062000598565b505050620000e4338266ffffffffffffff166200012c60201b60201c565b33600560006101000a81548173ffffffffffffffffffffffffffffffffffffffff021916908373ffffffffffffffffffffffffffffffffffffffff160217905550506200079a565b600073ffffffffffffffffffffffffffffffffffffffff168273ffffffffffffffffffffffffffffffffffffffff16036200019e576040517f08c379a00000000000000000000000000000000000000000000000000000000081526004016200019590620006e0565b60405180910390fd5b620001b2600083836200029960201b60201c565b8060026000828254620001c6919062000731565b92505081905550806000808473ffffffffffffffffffffffffffffffffffffffff1673ffffffffffffffffffffffffffffffffffffffff168152602001908152602001600020600082825401925050819055508173ffffffffffffffffffffffffffffffffffffffff16600073ffffffffffffffffffffffffffffffffffffffff167fddf252ad1be2c89b69c2b068fc378daa952ba7f163c4a11628f55a4df523b3ef836040516200027991906200077d565b60405180910390a362000295600083836200029e60201b60201c565b5050565b505050565b505050565b600080fd5b600066ffffffffffffff82169050919050565b620002c681620002a8565b8114620002d257600080fd5b50565b600081519050620002e681620002bb565b92915050565b600060208284031215620003055762000304620002a3565b5b60006200031584828501620002d5565b91505092915050565b600081519050919050565b7f4e487b7100000000000000000000000000000000000000000000000000000000600052604160045260246000fd5b7f4e487b7100000000000000000000000000000000000000000000000000000000600052602260045260246000fd5b60006002820490506001821680620003a057607f821691505b602082108103620003b657620003b562000358565b5b50919050565b60008190508160005260206000209050919050565b60006020601f8301049050919050565b600082821b905092915050565b600060088302620004207fffffffffffffffffffffffffffffffffffffffffffffffffffffffffffffffff82620003e1565b6200042c8683620003e1565b95508019841693508086168417925050509392505050565b6000819050919050565b6000819050919050565b600062000479620004736200046d8462000444565b6200044e565b62000444565b9050919050565b6000819050919050565b620004958362000458565b620004ad620004a48262000480565b848454620003ee565b825550505050565b600090565b620004c4620004b5565b620004d18184846200048a565b505050565b5b81811015620004f957620004ed600082620004ba565b600181019050620004d7565b5050565b601f82111562000548576200051281620003bc565b6200051d84620003d1565b810160208510156200052d578190505b620005456200053c85620003d1565b830182620004d6565b50505b505050565b600082821c905092915050565b60006200056d600019846008026200054d565b1980831691505092915050565b60006200058883836200055a565b9150826002028217905092915050565b620005a3826200031e565b67ffffffffffffffff811115620005bf57620005be62000329565b5b620005cb825462000387565b620005d8828285620004fd565b600060209050601f831160018114620006105760008415620005fb578287015190505b6200060785826200057a565b86555062000677565b601f1984166200062086620003bc565b60005b828110156200064a5784890151825560018201915060208501945060208101905062000623565b868310156200066a578489015162000666601f8916826200055a565b8355505b6001600288020188555050505b505050505050565b600082825260208201905092915050565b7f45524332303a206d696e7420746f20746865207a65726f206164647265737300600082015250565b6000620006c8601f836200067f565b9150620006d58262000690565b602082019050919050565b60006020820190508181036000830152620006fb81620006b9565b9050919050565b7f4e487b7100000000000000000000000000000000000000000000000000000000600052601160045260246000fd5b60006200073e8262000444565b91506200074b8362000444565b925082820190508082111562000766576200076562000702565b5b92915050565b620007778162000444565b82525050565b60006020820190506200079460008301846200076c565b92915050565b61194a80620007aa6000396000f3fe608060405234801561001057600080fd5b50600436106101005760003560e01c806371e15d4211610097578063a457c2d711610066578063a457c2d7146102af578063a9059cbb146102df578063b2bdfa7b1461030f578063dd62ed3e1461032d57610100565b806371e15d421461023b5780638f32d59b1461025757806395d89b41146102755780639d548a7e1461029357610100565b8063313ce567116100d3578063313ce567146101a157806339509351146101bf5780636f71b3ad146101ef57806370a082311461020b57610100565b806306fdde0314610105578063095ea7b31461012357806318160ddd1461015357806323b872dd14610171575b600080fd5b61010d61035d565b60405161011a9190611039565b60405180910390f35b61013d600480360381019061013891906110f4565b6103ef565b60405161014a919061114f565b60405180910390f35b61015b610412565b6040516101689190611179565b60405180910390f35b61018b60048036038101906101869190611194565b61041c565b604051610198919061114f565b60405180910390f35b6101a961044b565b6040516101b69190611203565b60405180910390f35b6101d960048036038101906101d491906110f4565b610454565b6040516101e6919061114f565b60405180910390f35b610209600480360381019061020491906110f4565b61048b565b005b6102256004803603810190610220919061121e565b6104aa565b6040516102329190611179565b60405180910390f35b610255600480360381019061025091906110f4565b6104f2565b005b61025f610557565b60405161026c919061114f565b60405180910390f35b61027d6105af565b60405161028a9190611039565b60405180910390f35b6102ad60048036038101906102a89190611194565b610641565b005b6102c960048036038101906102c491906110f4565b610662565b6040516102d6919061114f565b60405180910390f35b6102f960048036038101906102f491906110f4565b6106d9565b604051610306919061114f565b60405180910390f35b6103176106fc565b604051610324919061125a565b60405180910390f35b61034760048036038101906103429190611275565b610722565b6040516103549190611179565b60405180910390f35b60606003805461036c906112e4565b80601f0160208091040260200160405190810160405280929190818152602001828054610398906112e4565b80156103e55780601f106103ba576101008083540402835291602001916103e5565b820191906000526020600020905b8154815290600101906020018083116103c857829003601f168201915b5050505050905090565b6000806103fa6107a9565b90506104078185856107b1565b600191505092915050565b6000600254905090565b6000806104276107a9565b905061043485828561097a565b61043f858585610a06565b60019150509392505050565b60006012905090565b60008061045f6107a9565b90506104808185856104718589610722565b61047b9190611344565b6107b1565b600191505092915050565b610493610557565b61049c57600080fd5b6104a68282610c7c565b5050565b60008060008373ffffffffffffffffffffffffffffffffffffffff1673ffffffffffffffffffffffffffffffffffffffff168152602001908152602001600020549050919050565b6104fa610557565b61050357600080fd5b8061050d836104aa565b1115610535576105308282610521856104aa565b61052b9190611378565b610dd2565b610553565b61055282610542846104aa565b8361054d9190611378565b610c7c565b5b5050565b6000600560009054906101000a900473ffffffffffffffffffffffffffffffffffffffff1673ffffffffffffffffffffffffffffffffffffffff163373ffffffffffffffffffffffffffffffffffffffff1614905090565b6060600480546105be906112e4565b80601f01602080910402602001604051908101604052809291908181526020018280546105ea906112e4565b80156106375780601f1061060c57610100808354040283529160200191610637565b820191906000526020600020905b81548152906001019060200180831161061a57829003601f168201915b5050505050905090565b610649610557565b61065257600080fd5b61065d838383610a06565b505050565b60008061066d6107a9565b9050600061067b8286610722565b9050838110156106c0576040517f08c379a00000000000000000000000000000000000000000000000000000000081526004016106b79061141e565b60405180910390fd5b6106cd82868684036107b1565b60019250505092915050565b6000806106e46107a9565b90506106f1818585610a06565b600191505092915050565b600560009054906101000a900473ffffffffffffffffffffffffffffffffffffffff1681565b6000600160008473ffffffffffffffffffffffffffffffffffffffff1673ffffffffffffffffffffffffffffffffffffffff16815260200190815260200160002060008373ffffffffffffffffffffffffffffffffffffffff1673ffffffffffffffffffffffffffffffffffffffff16815260200190815260200160002054905092915050565b600033905090565b600073ffffffffffffffffffffffffffffffffffffffff168373ffffffffffffffffffffffffffffffffffffffff1603610820576040517f08c379a0000000000000000000000000000000000000000000000000000000008152600401610817906114b0565b60405180910390fd5b600073ffffffffffffffffffffffffffffffffffffffff168273ffffffffffffffffffffffffffffffffffffffff160361088f576040517f08c379a000000000000000000000000000000000000000000000000000000000815260040161088690611542565b60405180910390fd5b80600160008573ffffffffffffffffffffffffffffffffffffffff1673ffffffffffffffffffffffffffffffffffffffff16815260200190815260200160002060008473ffffffffffffffffffffffffffffffffffffffff1673ffffffffffffffffffffffffffffffffffffffff168152602001908152602001600020819055508173ffffffffffffffffffffffffffffffffffffffff168373ffffffffffffffffffffffffffffffffffffffff167f8c5be1e5ebec7d5bd14f71427d1e84f3dd0314c0f7b2291e5b200ac8c7c3b9258360405161096d9190611179565b60405180910390a3505050565b60006109868484610722565b90507fffffffffffffffffffffffffffffffffffffffffffffffffffffffffffffffff8114610a0057818110156109f2576040517f08c379a00000000000000000000000000000000000000000000000000000000081526004016109e9906115ae565b60405180910390fd5b6109ff84848484036107b1565b5b50505050565b600073ffffffffffffffffffffffffffffffffffffffff168373ffffffffffffffffffffffffffffffffffffffff1603610a75576040517f08c379a0000000000000000000000000000000000000000000000000000000008152600401610a6c90611640565b60405180910390fd5b600073ffffffffffffffffffffffffffffffffffffffff168273ffffffffffffffffffffffffffffffffffffffff1603610ae4576040517f08c379a0000000000000000000000000000000000000000000000000000000008152600401610adb906116d2565b60405180910390fd5b610aef838383610f9f565b60008060008573ffffffffffffffffffffffffffffffffffffffff1673ffffffffffffffffffffffffffffffffffffffff16815260200190815260200160002054905081811015610b75576040517f08c379a0000000000000000000000000000000000000000000000000000000008152600401610b6c90611764565b60405180910390fd5b8181036000808673ffffffffffffffffffffffffffffffffffffffff1673ffffffffffffffffffffffffffffffffffffffff16815260200190815260200160002081905550816000808573ffffffffffffffffffffffffffffffffffffffff1673ffffffffffffffffffffffffffffffffffffffff168152602001908152602001600020600082825401925050819055508273ffffffffffffffffffffffffffffffffffffffff168473ffffffffffffffffffffffffffffffffffffffff167fddf252ad1be2c89b69c2b068fc378daa952ba7f163c4a11628f55a4df523b3ef84604051610c639190611179565b60405180910390a3610c76848484610fa4565b50505050565b600073ffffffffffffffffffffffffffffffffffffffff168273ffffffffffffffffffffffffffffffffffffffff1603610ceb576040517f08c379a0000000000000000000000000000000000000000000000000000000008152600401610ce2906117d0565b60405180910390fd5b610cf760008383610f9f565b8060026000828254610d099190611344565b92505081905550806000808473ffffffffffffffffffffffffffffffffffffffff1673ffffffffffffffffffffffffffffffffffffffff168152602001908152602001600020600082825401925050819055508173ffffffffffffffffffffffffffffffffffffffff16600073ffffffffffffffffffffffffffffffffffffffff167fddf252ad1be2c89b69c2b068fc378daa952ba7f163c4a11628f55a4df523b3ef83604051610dba9190611179565b60405180910390a3610dce60008383610fa4565b5050565b600073ffffffffffffffffffffffffffffffffffffffff168273ffffffffffffffffffffffffffffffffffffffff1603610e41576040517f08c379a0000000000000000000000000000000000000000000000000000000008152600401610e3890611862565b60405180910390fd5b610e4d82600083610f9f565b60008060008473ffffffffffffffffffffffffffffffffffffffff1673ffffffffffffffffffffffffffffffffffffffff16815260200190815260200160002054905081811015610ed3576040517f08c379a0000000000000000000000000000000000000000000000000000000008152600401610eca906118f4565b60405180910390fd5b8181036000808573ffffffffffffffffffffffffffffffffffffffff1673ffffffffffffffffffffffffffffffffffffffff1681526020019081526020016000208190555081600260008282540392505081905550600073ffffffffffffffffffffffffffffffffffffffff168373ffffffffffffffffffffffffffffffffffffffff167fddf252ad1be2c89b69c2b068fc378daa952ba7f163c4a11628f55a4df523b3ef84604051610f869190611179565b60405180910390a3610f9a83600084610fa4565b505050565b505050565b505050565b600081519050919050565b600082825260208201905092915050565b60005b83811015610fe3578082015181840152602081019050610fc8565b60008484015250505050565b6000601f19601f8301169050919050565b600061100b82610fa9565b6110158185610fb4565b9350611025818560208601610fc5565b61102e81610fef565b840191505092915050565b600060208201905081810360008301526110538184611000565b905092915050565b600080fd5b600073ffffffffffffffffffffffffffffffffffffffff82169050919050565b600061108b82611060565b9050919050565b61109b81611080565b81146110a657600080fd5b50565b6000813590506110b881611092565b92915050565b6000819050919050565b6110d1816110be565b81146110dc57600080fd5b50565b6000813590506110ee816110c8565b92915050565b6000806040838503121561110b5761110a61105b565b5b6000611119858286016110a9565b925050602061112a858286016110df565b9150509250929050565b60008115159050919050565b61114981611134565b82525050565b60006020820190506111646000830184611140565b92915050565b611173816110be565b82525050565b600060208201905061118e600083018461116a565b92915050565b6000806000606084860312156111ad576111ac61105b565b5b60006111bb868287016110a9565b93505060206111cc868287016110a9565b92505060406111dd868287016110df565b9150509250925092565b600060ff82169050919050565b6111fd816111e7565b82525050565b600060208201905061121860008301846111f4565b92915050565b6000602082840312156112345761123361105b565b5b6000611242848285016110a9565b91505092915050565b61125481611080565b82525050565b600060208201905061126f600083018461124b565b92915050565b6000806040838503121561128c5761128b61105b565b5b600061129a858286016110a9565b92505060206112ab858286016110a9565b9150509250929050565b7f4e487b7100000000000000000000000000000000000000000000000000000000600052602260045260246000fd5b600060028204905060018216806112fc57607f821691505b60208210810361130f5761130e6112b5565b5b50919050565b7f4e487b7100000000000000000000000000000000000000000000000000000000600052601160045260246000fd5b600061134f826110be565b915061135a836110be565b925082820190508082111561137257611371611315565b5b92915050565b6000611383826110be565b915061138e836110be565b92508282039050818111156113a6576113a5611315565b5b92915050565b7f45524332303a2064656372656173656420616c6c6f77616e63652062656c6f7760008201527f207a65726f000000000000000000000000000000000000000000000000000000602082015250565b6000611408602583610fb4565b9150611413826113ac565b604082019050919050565b60006020820190508181036000830152611437816113fb565b9050919050565b7f45524332303a20617070726f76652066726f6d20746865207a65726f2061646460008201527f7265737300000000000000000000000000000000000000000000000000000000602082015250565b600061149a602483610fb4565b91506114a58261143e565b604082019050919050565b600060208201905081810360008301526114c98161148d565b9050919050565b7f45524332303a20617070726f766520746f20746865207a65726f20616464726560008201527f7373000000000000000000000000000000000000000000000000000000000000602082015250565b600061152c602283610fb4565b9150611537826114d0565b604082019050919050565b6000602082019050818103600083015261155b8161151f565b9050919050565b7f45524332303a20696e73756666696369656e7420616c6c6f77616e6365000000600082015250565b6000611598601d83610fb4565b91506115a382611562565b602082019050919050565b600060208201905081810360008301526115c78161158b565b9050919050565b7f45524332303a207472616e736665722066726f6d20746865207a65726f20616460008201527f6472657373000000000000000000000000000000000000000000000000000000602082015250565b600061162a602583610fb4565b9150611635826115ce565b604082019050919050565b600060208201905081810360008301526116598161161d565b9050919050565b7f45524332303a207472616e7366657220746f20746865207a65726f206164647260008201527f6573730000000000000000000000000000000000000000000000000000000000602082015250565b60006116bc602383610fb4565b91506116c782611660565b604082019050919050565b600060208201905081810360008301526116eb816116af565b9050919050565b7f45524332303a207472616e7366657220616d6f756e742065786365656473206260008201527f616c616e63650000000000000000000000000000000000000000000000000000602082015250565b600061174e602683610fb4565b9150611759826116f2565b604082019050919050565b6000602082019050818103600083015261177d81611741565b9050919050565b7f45524332303a206d696e7420746f20746865207a65726f206164647265737300600082015250565b60006117ba601f83610fb4565b91506117c582611784565b602082019050919050565b600060208201905081810360008301526117e9816117ad565b9050919050565b7f45524332303a206275726e2066726f6d20746865207a65726f2061646472657360008201527f7300000000000000000000000000000000000000000000000000000000000000602082015250565b600061184c602183610fb4565b9150611857826117f0565b604082019050919050565b6000602082019050818103600083015261187b8161183f565b9050919050565b7f45524332303a206275726e20616d6f756e7420657863656564732062616c616e60008201527f6365000000000000000000000000000000000000000000000000000000000000602082015250565b60006118de602283610fb4565b91506118e982611882565b604082019050919050565b6000602082019050818103600083015261190d816118d1565b905091905056fea2646970667358221220e47d8a72f5b7d11db56e9f0319ad4ffccdd65ae2f2a5d2ca5c5eb962af24881264736f6c63430008110033",
  "linkReferences": {},
  "deployedLinkReferences": {}
}