{
  "_format": "hh-sol-artifact-1",
  "contractName": "TokenWithSanctions",
  "sourceName": "contracts/week1/TokenWithSanctions.sol",
  "abi": [
    {
      "inputs": [
        {
          "internalType": "uint56",
          "name": "_supply",
          "type": "uint56"
        }
      ],
      "stateMutability": "nonpayable",
      "type": "constructor"
    },
    {
      "anonymous": false,
      "inputs": [
        {
          "indexed": true,
          "internalType": "address",
          "name": "owner",
          "type": "address"
        },
        {
          "indexed": true,
          "internalType": "address",
          "name": "spender",
          "type": "address"
        },
        {
          "indexed": false,
          "internalType": "uint256",
          "name": "value",
          "type": "uint256"
        }
      ],
      "name": "Approval",
      "type": "event"
    },
    {
      "anonymous": false,
      "inputs": [
        {
          "indexed": true,
          "internalType": "address",
          "name": "from",
          "type": "address"
        },
        {
          "indexed": true,
          "internalType": "address",
          "name": "to",
          "type": "address"
        },
        {
          "indexed": false,
          "internalType": "uint256",
          "name": "value",
          "type": "uint256"
        }
      ],
      "name": "Transfer",
      "type": "event"
    },
    {
      "inputs": [
        {
          "internalType": "address",
          "name": "owner",
          "type": "address"
        },
        {
          "internalType": "address",
          "name": "spender",
          "type": "address"
        }
      ],
      "name": "allowance",
      "outputs": [
        {
          "internalType": "uint256",
          "name": "",
          "type": "uint256"
        }
      ],
      "stateMutability": "view",
      "type": "function"
    },
    {
      "inputs": [
        {
          "internalType": "address",
          "name": "spender",
          "type": "address"
        },
        {
          "internalType": "uint256",
          "name": "amount",
          "type": "uint256"
        }
      ],
      "name": "approve",
      "outputs": [
        {
          "internalType": "bool",
          "name": "",
          "type": "bool"
        }
      ],
      "stateMutability": "nonpayable",
      "type": "function"
    },
    {
      "inputs": [
        {
          "internalType": "address",
          "name": "account",
          "type": "address"
        }
      ],
      "name": "balanceOf",
      "outputs": [
        {
          "internalType": "uint256",
          "name": "",
          "type": "uint256"
        }
      ],
      "stateMutability": "view",
      "type": "function"
    },
    {
      "inputs": [
        {
          "internalType": "address",
          "name": "userAddress",
          "type": "address"
        }
      ],
      "name": "blockAddress",
      "outputs": [],
      "stateMutability": "nonpayable",
      "type": "function"
    },
    {
      "inputs": [],
      "name": "decimals",
      "outputs": [
        {
          "internalType": "uint8",
          "name": "",
          "type": "uint8"
        }
      ],
      "stateMutability": "view",
      "type": "function"
    },
    {
      "inputs": [
        {
          "internalType": "address",
          "name": "spender",
          "type": "address"
        },
        {
          "internalType": "uint256",
          "name": "subtractedValue",
          "type": "uint256"
        }
      ],
      "name": "decreaseAllowance",
      "outputs": [
        {
          "internalType": "bool",
          "name": "",
          "type": "bool"
        }
      ],
      "stateMutability": "nonpayable",
      "type": "function"
    },
    {
      "inputs": [
        {
          "internalType": "address",
          "name": "spender",
          "type": "address"
        },
        {
          "internalType": "uint256",
          "name": "addedValue",
          "type": "uint256"
        }
      ],
      "name": "increaseAllowance",
      "outputs": [
        {
          "internalType": "bool",
          "name": "",
          "type": "bool"
        }
      ],
      "stateMutability": "nonpayable",
      "type": "function"
    },
    {
      "inputs": [],
      "name": "isOwner",
      "outputs": [
        {
          "internalType": "bool",
          "name": "",
          "type": "bool"
        }
      ],
      "stateMutability": "view",
      "type": "function"
    },
    {
      "inputs": [],
      "name": "name",
      "outputs": [
        {
          "internalType": "string",
          "name": "",
          "type": "string"
        }
      ],
      "stateMutability": "view",
      "type": "function"
    },
    {
      "inputs": [],
      "name": "symbol",
      "outputs": [
        {
          "internalType": "string",
          "name": "",
          "type": "string"
        }
      ],
      "stateMutability": "view",
      "type": "function"
    },
    {
      "inputs": [],
      "name": "totalSupply",
      "outputs": [
        {
          "internalType": "uint256",
          "name": "",
          "type": "uint256"
        }
      ],
      "stateMutability": "view",
      "type": "function"
    },
    {
      "inputs": [
        {
          "internalType": "address",
          "name": "to",
          "type": "address"
        },
        {
          "internalType": "uint256",
          "name": "amount",
          "type": "uint256"
        }
      ],
      "name": "transfer",
      "outputs": [
        {
          "internalType": "bool",
          "name": "",
          "type": "bool"
        }
      ],
      "stateMutability": "nonpayable",
      "type": "function"
    },
    {
      "inputs": [
        {
          "internalType": "address",
          "name": "from",
          "type": "address"
        },
        {
          "internalType": "address",
          "name": "to",
          "type": "address"
        },
        {
          "internalType": "uint256",
          "name": "amount",
          "type": "uint256"
        }
      ],
      "name": "transferFrom",
      "outputs": [
        {
          "internalType": "bool",
          "name": "",
          "type": "bool"
        }
      ],
      "stateMutability": "nonpayable",
      "type": "function"
    },
    {
      "inputs": [
        {
          "internalType": "address",
          "name": "userAddress",
          "type": "address"
        }
      ],
      "name": "unblockAddress",
      "outputs": [],
      "stateMutability": "nonpayable",
      "type": "function"
    }
  ],
  "bytecode": "0x60806040523480156200001157600080fd5b5060405162001e9638038062001e96833981810160405281019062000037919062000418565b6040518060400160405280601281526020017f546f6b656e5769746853616e6374696f6e7300000000000000000000000000008152506040518060400160405280600381526020017f54575300000000000000000000000000000000000000000000000000000000008152508160039081620000b49190620006c4565b508060049081620000c69190620006c4565b505050620000e4338266ffffffffffffff166200012c60201b60201c565b33600560006101000a81548173ffffffffffffffffffffffffffffffffffffffff021916908373ffffffffffffffffffffffffffffffffffffffff16021790555050620009aa565b600073ffffffffffffffffffffffffffffffffffffffff168273ffffffffffffffffffffffffffffffffffffffff16036200019e576040517f08c379a000000000000000000000000000000000000000000000000000000000815260040162000195906200080c565b60405180910390fd5b620001b2600083836200029960201b60201c565b8060026000828254620001c691906200085d565b92505081905550806000808473ffffffffffffffffffffffffffffffffffffffff1673ffffffffffffffffffffffffffffffffffffffff168152602001908152602001600020600082825401925050819055508173ffffffffffffffffffffffffffffffffffffffff16600073ffffffffffffffffffffffffffffffffffffffff167fddf252ad1be2c89b69c2b068fc378daa952ba7f163c4a11628f55a4df523b3ef83604051620002799190620008a9565b60405180910390a36200029560008383620003ca60201b60201c565b5050565b60001515600660008573ffffffffffffffffffffffffffffffffffffffff1673ffffffffffffffffffffffffffffffffffffffff16815260200190815260200160002060009054906101000a900460ff161515146200032f576040517f08c379a0000000000000000000000000000000000000000000000000000000008152600401620003269062000916565b60405180910390fd5b60001515600660008473ffffffffffffffffffffffffffffffffffffffff1673ffffffffffffffffffffffffffffffffffffffff16815260200190815260200160002060009054906101000a900460ff16151514620003c5576040517f08c379a0000000000000000000000000000000000000000000000000000000008152600401620003bc9062000988565b60405180910390fd5b505050565b505050565b600080fd5b600066ffffffffffffff82169050919050565b620003f281620003d4565b8114620003fe57600080fd5b50565b6000815190506200041281620003e7565b92915050565b600060208284031215620004315762000430620003cf565b5b6000620004418482850162000401565b91505092915050565b600081519050919050565b7f4e487b7100000000000000000000000000000000000000000000000000000000600052604160045260246000fd5b7f4e487b7100000000000000000000000000000000000000000000000000000000600052602260045260246000fd5b60006002820490506001821680620004cc57607f821691505b602082108103620004e257620004e162000484565b5b50919050565b60008190508160005260206000209050919050565b60006020601f8301049050919050565b600082821b905092915050565b6000600883026200054c7fffffffffffffffffffffffffffffffffffffffffffffffffffffffffffffffff826200050d565b6200055886836200050d565b95508019841693508086168417925050509392505050565b6000819050919050565b6000819050919050565b6000620005a56200059f620005998462000570565b6200057a565b62000570565b9050919050565b6000819050919050565b620005c18362000584565b620005d9620005d082620005ac565b8484546200051a565b825550505050565b600090565b620005f0620005e1565b620005fd818484620005b6565b505050565b5b81811015620006255762000619600082620005e6565b60018101905062000603565b5050565b601f82111562000674576200063e81620004e8565b6200064984620004fd565b8101602085101562000659578190505b620006716200066885620004fd565b83018262000602565b50505b505050565b600082821c905092915050565b6000620006996000198460080262000679565b1980831691505092915050565b6000620006b4838362000686565b9150826002028217905092915050565b620006cf826200044a565b67ffffffffffffffff811115620006eb57620006ea62000455565b5b620006f78254620004b3565b6200070482828562000629565b600060209050601f8311600181146200073c576000841562000727578287015190505b620007338582620006a6565b865550620007a3565b601f1984166200074c86620004e8565b60005b8281101562000776578489015182556001820191506020850194506020810190506200074f565b8683101562000796578489015162000792601f89168262000686565b8355505b6001600288020188555050505b505050505050565b600082825260208201905092915050565b7f45524332303a206d696e7420746f20746865207a65726f206164647265737300600082015250565b6000620007f4601f83620007ab565b91506200080182620007bc565b602082019050919050565b600060208201905081810360008301526200082781620007e5565b9050919050565b7f4e487b7100000000000000000000000000000000000000000000000000000000600052601160045260246000fd5b60006200086a8262000570565b9150620008778362000570565b92508282019050808211156200089257620008916200082e565b5b92915050565b620008a38162000570565b82525050565b6000602082019050620008c0600083018462000898565b92915050565b7f46726f6d206164647265737320697320626c61636b6c69737465640000000000600082015250565b6000620008fe601b83620007ab565b91506200090b82620008c6565b602082019050919050565b600060208201905081810360008301526200093181620008ef565b9050919050565b7f546f206164647265737320697320626c61636b6c697374656400000000000000600082015250565b600062000970601983620007ab565b91506200097d8262000938565b602082019050919050565b60006020820190508181036000830152620009a38162000961565b9050919050565b6114dc80620009ba6000396000f3fe608060405234801561001057600080fd5b50600436106100ea5760003560e01c806370a082311161008c578063a457c2d711610066578063a457c2d714610261578063a9059cbb14610291578063ad2bb1b3146102c1578063dd62ed3e146102dd576100ea565b806370a08231146101f55780638f32d59b1461022557806395d89b4114610243576100ea565b8063186d9d88116100c8578063186d9d881461015b57806323b872dd14610177578063313ce567146101a757806339509351146101c5576100ea565b806306fdde03146100ef578063095ea7b31461010d57806318160ddd1461013d575b600080fd5b6100f761030d565b6040516101049190610d4d565b60405180910390f35b61012760048036038101906101229190610e08565b61039f565b6040516101349190610e63565b60405180910390f35b6101456103c2565b6040516101529190610e8d565b60405180910390f35b61017560048036038101906101709190610ea8565b6103cc565b005b610191600480360381019061018c9190610ed5565b61042f565b60405161019e9190610e63565b60405180910390f35b6101af610447565b6040516101bc9190610f44565b60405180910390f35b6101df60048036038101906101da9190610e08565b610450565b6040516101ec9190610e63565b60405180910390f35b61020f600480360381019061020a9190610ea8565b610487565b60405161021c9190610e8d565b60405180910390f35b61022d6104cf565b60405161023a9190610e63565b60405180910390f35b61024b610527565b6040516102589190610d4d565b60405180910390f35b61027b60048036038101906102769190610e08565b6105b9565b6040516102889190610e63565b60405180910390f35b6102ab60048036038101906102a69190610e08565b610630565b6040516102b89190610e63565b60405180910390f35b6102db60048036038101906102d69190610ea8565b610653565b005b6102f760048036038101906102f29190610f5f565b6106bf565b6040516103049190610e8d565b60405180910390f35b60606003805461031c90610fce565b80601f016020809104026020016040519081016040528092919081815260200182805461034890610fce565b80156103955780601f1061036a57610100808354040283529160200191610395565b820191906000526020600020905b81548152906001019060200180831161037857829003601f168201915b5050505050905090565b6000806103aa610746565b90506103b781858561074e565b600191505092915050565b6000600254905090565b6103d46104cf565b6103dd57600080fd5b600660008273ffffffffffffffffffffffffffffffffffffffff1673ffffffffffffffffffffffffffffffffffffffff16815260200190815260200160002060006101000a81549060ff021916905550565b600061043c848484610917565b600190509392505050565b60006012905090565b60008061045b610746565b905061047c81858561046d85896106bf565b610477919061102e565b61074e565b600191505092915050565b60008060008373ffffffffffffffffffffffffffffffffffffffff1673ffffffffffffffffffffffffffffffffffffffff168152602001908152602001600020549050919050565b6000600560009054906101000a900473ffffffffffffffffffffffffffffffffffffffff1673ffffffffffffffffffffffffffffffffffffffff163373ffffffffffffffffffffffffffffffffffffffff1614905090565b60606004805461053690610fce565b80601f016020809104026020016040519081016040528092919081815260200182805461056290610fce565b80156105af5780601f10610584576101008083540402835291602001916105af565b820191906000526020600020905b81548152906001019060200180831161059257829003601f168201915b5050505050905090565b6000806105c4610746565b905060006105d282866106bf565b905083811015610617576040517f08c379a000000000000000000000000000000000000000000000000000000000815260040161060e906110d4565b60405180910390fd5b610624828686840361074e565b60019250505092915050565b60008061063b610746565b9050610648818585610917565b600191505092915050565b61065b6104cf565b61066457600080fd5b6001600660008373ffffffffffffffffffffffffffffffffffffffff1673ffffffffffffffffffffffffffffffffffffffff16815260200190815260200160002060006101000a81548160ff02191690831515021790555050565b6000600160008473ffffffffffffffffffffffffffffffffffffffff1673ffffffffffffffffffffffffffffffffffffffff16815260200190815260200160002060008373ffffffffffffffffffffffffffffffffffffffff1673ffffffffffffffffffffffffffffffffffffffff16815260200190815260200160002054905092915050565b600033905090565b600073ffffffffffffffffffffffffffffffffffffffff168373ffffffffffffffffffffffffffffffffffffffff16036107bd576040517f08c379a00000000000000000000000000000000000000000000000000000000081526004016107b490611166565b60405180910390fd5b600073ffffffffffffffffffffffffffffffffffffffff168273ffffffffffffffffffffffffffffffffffffffff160361082c576040517f08c379a0000000000000000000000000000000000000000000000000000000008152600401610823906111f8565b60405180910390fd5b80600160008573ffffffffffffffffffffffffffffffffffffffff1673ffffffffffffffffffffffffffffffffffffffff16815260200190815260200160002060008473ffffffffffffffffffffffffffffffffffffffff1673ffffffffffffffffffffffffffffffffffffffff168152602001908152602001600020819055508173ffffffffffffffffffffffffffffffffffffffff168373ffffffffffffffffffffffffffffffffffffffff167f8c5be1e5ebec7d5bd14f71427d1e84f3dd0314c0f7b2291e5b200ac8c7c3b9258360405161090a9190610e8d565b60405180910390a3505050565b600073ffffffffffffffffffffffffffffffffffffffff168373ffffffffffffffffffffffffffffffffffffffff1603610986576040517f08c379a000000000000000000000000000000000000000000000000000000000815260040161097d9061128a565b60405180910390fd5b600073ffffffffffffffffffffffffffffffffffffffff168273ffffffffffffffffffffffffffffffffffffffff16036109f5576040517f08c379a00000000000000000000000000000000000000000000000000000000081526004016109ec9061131c565b60405180910390fd5b610a00838383610b8d565b60008060008573ffffffffffffffffffffffffffffffffffffffff1673ffffffffffffffffffffffffffffffffffffffff16815260200190815260200160002054905081811015610a86576040517f08c379a0000000000000000000000000000000000000000000000000000000008152600401610a7d906113ae565b60405180910390fd5b8181036000808673ffffffffffffffffffffffffffffffffffffffff1673ffffffffffffffffffffffffffffffffffffffff16815260200190815260200160002081905550816000808573ffffffffffffffffffffffffffffffffffffffff1673ffffffffffffffffffffffffffffffffffffffff168152602001908152602001600020600082825401925050819055508273ffffffffffffffffffffffffffffffffffffffff168473ffffffffffffffffffffffffffffffffffffffff167fddf252ad1be2c89b69c2b068fc378daa952ba7f163c4a11628f55a4df523b3ef84604051610b749190610e8d565b60405180910390a3610b87848484610cb8565b50505050565b60001515600660008573ffffffffffffffffffffffffffffffffffffffff1673ffffffffffffffffffffffffffffffffffffffff16815260200190815260200160002060009054906101000a900460ff16151514610c20576040517f08c379a0000000000000000000000000000000000000000000000000000000008152600401610c179061141a565b60405180910390fd5b60001515600660008473ffffffffffffffffffffffffffffffffffffffff1673ffffffffffffffffffffffffffffffffffffffff16815260200190815260200160002060009054906101000a900460ff16151514610cb3576040517f08c379a0000000000000000000000000000000000000000000000000000000008152600401610caa90611486565b60405180910390fd5b505050565b505050565b600081519050919050565b600082825260208201905092915050565b60005b83811015610cf7578082015181840152602081019050610cdc565b60008484015250505050565b6000601f19601f8301169050919050565b6000610d1f82610cbd565b610d298185610cc8565b9350610d39818560208601610cd9565b610d4281610d03565b840191505092915050565b60006020820190508181036000830152610d678184610d14565b905092915050565b600080fd5b600073ffffffffffffffffffffffffffffffffffffffff82169050919050565b6000610d9f82610d74565b9050919050565b610daf81610d94565b8114610dba57600080fd5b50565b600081359050610dcc81610da6565b92915050565b6000819050919050565b610de581610dd2565b8114610df057600080fd5b50565b600081359050610e0281610ddc565b92915050565b60008060408385031215610e1f57610e1e610d6f565b5b6000610e2d85828601610dbd565b9250506020610e3e85828601610df3565b9150509250929050565b60008115159050919050565b610e5d81610e48565b82525050565b6000602082019050610e786000830184610e54565b92915050565b610e8781610dd2565b82525050565b6000602082019050610ea26000830184610e7e565b92915050565b600060208284031215610ebe57610ebd610d6f565b5b6000610ecc84828501610dbd565b91505092915050565b600080600060608486031215610eee57610eed610d6f565b5b6000610efc86828701610dbd565b9350506020610f0d86828701610dbd565b9250506040610f1e86828701610df3565b9150509250925092565b600060ff82169050919050565b610f3e81610f28565b82525050565b6000602082019050610f596000830184610f35565b92915050565b60008060408385031215610f7657610f75610d6f565b5b6000610f8485828601610dbd565b9250506020610f9585828601610dbd565b9150509250929050565b7f4e487b7100000000000000000000000000000000000000000000000000000000600052602260045260246000fd5b60006002820490506001821680610fe657607f821691505b602082108103610ff957610ff8610f9f565b5b50919050565b7f4e487b7100000000000000000000000000000000000000000000000000000000600052601160045260246000fd5b600061103982610dd2565b915061104483610dd2565b925082820190508082111561105c5761105b610fff565b5b92915050565b7f45524332303a2064656372656173656420616c6c6f77616e63652062656c6f7760008201527f207a65726f000000000000000000000000000000000000000000000000000000602082015250565b60006110be602583610cc8565b91506110c982611062565b604082019050919050565b600060208201905081810360008301526110ed816110b1565b9050919050565b7f45524332303a20617070726f76652066726f6d20746865207a65726f2061646460008201527f7265737300000000000000000000000000000000000000000000000000000000602082015250565b6000611150602483610cc8565b915061115b826110f4565b604082019050919050565b6000602082019050818103600083015261117f81611143565b9050919050565b7f45524332303a20617070726f766520746f20746865207a65726f20616464726560008201527f7373000000000000000000000000000000000000000000000000000000000000602082015250565b60006111e2602283610cc8565b91506111ed82611186565b604082019050919050565b60006020820190508181036000830152611211816111d5565b9050919050565b7f45524332303a207472616e736665722066726f6d20746865207a65726f20616460008201527f6472657373000000000000000000000000000000000000000000000000000000602082015250565b6000611274602583610cc8565b915061127f82611218565b604082019050919050565b600060208201905081810360008301526112a381611267565b9050919050565b7f45524332303a207472616e7366657220746f20746865207a65726f206164647260008201527f6573730000000000000000000000000000000000000000000000000000000000602082015250565b6000611306602383610cc8565b9150611311826112aa565b604082019050919050565b60006020820190508181036000830152611335816112f9565b9050919050565b7f45524332303a207472616e7366657220616d6f756e742065786365656473206260008201527f616c616e63650000000000000000000000000000000000000000000000000000602082015250565b6000611398602683610cc8565b91506113a38261133c565b604082019050919050565b600060208201905081810360008301526113c78161138b565b9050919050565b7f46726f6d206164647265737320697320626c61636b6c69737465640000000000600082015250565b6000611404601b83610cc8565b915061140f826113ce565b602082019050919050565b60006020820190508181036000830152611433816113f7565b9050919050565b7f546f206164647265737320697320626c61636b6c697374656400000000000000600082015250565b6000611470601983610cc8565b915061147b8261143a565b602082019050919050565b6000602082019050818103600083015261149f81611463565b905091905056fea2646970667358221220cb9fb58b22a10731f22c76a1324ff1ce41a1702a9f69a9d29a3245a1d15b9e1a64736f6c63430008110033",
  "linkReferences": {},
  "deployedLinkReferences": {}
}